:020000040000FA
:1000000030C30720951600009D1600009F160000C3
:10001000A1160000A3160000A516000000000000B5
:10002000000000000000000000000000A716000013
:10003000A916000000000000AB160000AD1600007D
:10004000AF160000AF160000AF160000AF1600009C
:10005000AF160000AF160000AF160000AF1600008C
:10006000AF160000AF160000AF160000AF1600007C
:10007000AF160000AF160000AF160000AF1600006C
:10008000AF160000AF160000AF160000AF1600005C
:10009000AF160000AF160000AF160000AF1600004C
:1000A000810B0000AF160000AF160000AF16000075
:1000B000AF160000AF160000AF160000AF1600002C
:1000C000AF160000AF160000AF16000000F002F8F7
:1000D00000F03AF80AA090E8000C82448344AAF1A8
:1000E0000107DA4501D100F02FF8AFF2090EBAE8A6
:1000F0000F0013F0010F18BFFB1A43F0010318475C
:100100000C2F00003C2F0000103A24BF78C878C1A3
:10011000FAD8520724BF30C830C144BF04680C600D
:10012000704700000023002400250026103A28BF55
:1001300078C1FBD8520728BF30C148BF0B60704759
:100140001FB51FBD10B510BD01F0E1FB1146FFF753
:10015000F7FF01F087FA01F0FFFB03B4FFF7F2FFAE
:1001600003BC01F007FC00000120C7490880002003
:10017000C6490870C64908704FF00110C5490860AB
:100180000020C5490860C5490860704710B5C449DA
:10019000002000F06AFB10BD10B5C2488088082816
:1001A00001DD082401E0BF488488BE48224601687A
:1001B000802000F055FC0446BA4800682044B94944
:1001C000086008468088001B888010BD10B5B548BF
:1001D0000168002000F049FB0446B2480068204452
:1001E000B049086008468088001B888010BD10B5A3
:1001F00000221146802000F033FC10BD10B5AA4942
:10020000002000F032FB10BD10B50446082C6FD260
:10021000DFE804F06E04EFED6E6EECEBFFF7B6FF77
:100220009F490978C80900F0BCFA9D48C0889D49DB
:1002300088809B480078C0F3411010B101287BD121
:1002400092E0974840780C2877D2DFE800F0060D5E
:100250008A158A1D333A41555E8301F0EFFB00B9E0
:10026000BAE0FFF799FF7DE0002001F047FC00B9FC
:10027000B2E0FFF7BCFF75E0012001F03FFC00B9E0
:10028000AAE0FFF7B4FF6DE000BF8548007800F0FA
:100290001F0030B98248807840F080007B490870A8
:1002A00001E0002001E000BF012000B994E0FFF769
:1002B0009EFF57E001F066FB00B98DE0FFF76CFF91
:1002C00050E0002000F095FA00207649888049E04F
:1002D00000BF7348007800F01F0018B96C487149DE
:1002E000086001E0002001E000BF012008B973E0D0
:1002F000C7E0FFF751FF35E001F08CFC00B96BE07F
:10030000FFF775FF00F060FD2CE000BF6448007847
:1003100000F01F00012814D15D48007870B16048DA
:10032000007962490978884208DA5D4800796049B5
:1003300008445C49086003E04DE012E0002004E05E
:1003400001E0002001E000BF012000B944E0FFF718
:1003500023FF07E001F03EFD00B93DE0FFF747FF56
:1003600000E039E000BF3EE04D48007800F01F009B
:1003700020B1012803D002282BD129E02CE04848E5
:10038000007920BB46484078FE280ED0FF281DD1BA
:100390004348408840B94248C08828B900F06CFD05
:1003A00010B1FFF724FF15E010E03D48408860B928
:1003B0003B48C088012808D100F067FD28B13A48C1
:1003C00038490860FFF7E8FE04E000BF00BF03E023
:1003D00002E001E007E000BF802000F00AFA002000
:1003E0003049888000BF00BF4BE046E041E027E095
:1003F000FFE72B480078C009F8B92A488088F0B197
:10040000FFF7E4FE27488088C8B925480078C0F384
:10041000411010B101280FD100E0DDE7204800783D
:1004200000F01F0020B1012803D0022803D101E011
:10043000D2E7D1E7D0E7CFE7CEE7FFF7DFFE20E056
:10044000174800780121B1EBD01F02D1FFF7A4FEBD
:100450000EE00E48007800F0800048B10B480078AC
:1004600000F07F00094908700846007800F090F815
:1004700007E0002000F0CAF903E0802000F0C6F990
:1004800000BF00BF10BD000000C0072002C0072051
:1004900003C0072004C0072008C007200CC00720A5
:1004A00028C0072020C0072015C0072010C0072043
:1004B00011C0072001460A07D00E01F0800202B1E8
:1004C000401C70471021F94A1160F949C1F8100227
:1004D00000BFF6490839096801F010010029F8D079
:1004E00070471022F14B1A60F14AC2F8100200BFA7
:1004F000EE4A083A126802F01002002AF8D01022E0
:10050000EA4B1A60EA4AC2F8101200BFE74A083AFA
:10051000126802F01002002AF8D0704710B50446A5
:100520000B461020E14908602046FFF7C3FF4FF457
:10053000A06141EA0040DE49C1F8100200BFDB487B
:100540000838006800F010000028F8D01020D749C3
:100550000860D748C0F8103200BFD4480838006897
:1005600000F010000028F8D010BD01463020CF4A1E
:100570001060CF48C0F8101200BFCC48083800689F
:1005800000F020000028F8D0C8480C300068704700
:1005900010B5044644F080004FF4807242EA0041F6
:1005A000C448FFF79EFF44F080004FF4807242EA97
:1005B0000041C048FFF795FF10BD0021BB4A403203
:1005C00011600821BA4AC2F84C120121B74A4032E0
:1005D00011600821B64AC2F84C1200BFB34908396D
:1005E000096801F480710029F8D04FF0FF31AF4A5B
:1005F00030321160AE4AC2F83412AC4A11600C219C
:10060000121F1160AC49A94A783211604FF0FF31D6
:10061000A64A4C321160A54A843211600021121F93
:100620001160491EA14A9C321160A04AA832116093
:100630009E4AB432116007219C4A8C32116000211D
:100640009E4A11605160002007E000219C4A42F858
:1006500020109C4A42F82010401C2028F5D37047F7
:1006600000B59948406820F07050974948600846A6
:10067000406840F0A05048600846C0689349084070
:100680009149C8600846C068914908438E49C860CE
:100690000846006920F4402008610846006940F4DB
:1006A000802008618B48006840F000408949C439C7
:1006B000C1F8C40012208849086000BF8648001DA8
:1006C000006800F012001228F8D1182001218140A2
:1006D0004209920002F1E022C2F8001100BFFFF7C8
:1006E0006CFF0020FFF754FF00BD10B504460CB1AD
:1006F000012000E000204FF4807242EA0041774878
:10070000FFF7EFFE10BD7047704700B574480078E2
:1007100000F0020018B173497048FFF7E2FE00BD17
:10072000704710B504460CB1012000E000204FF4E2
:10073000807242EA00416C48FFF7D3FE03205B4918
:100740003C31086000BF59480838006800F48070E8
:100750000028F8D04FF480705449086010BD10B5DF
:1007600003469878FFF7A6FE044650483C300068E0
:100770000121A14008434E49C1F844024B48403092
:1007800004609888C1F84C0200BF484808380068E7
:1007900000F480700028F8D04FF48070434908605E
:1007A00010BD704730B504462046FFF783FE4F4921
:1007B00041EA004589132846FFF793FE30BD30B566
:1007C00004462046FFF776FE484941EA004548497D
:1007D0002846FFF786FE30BD30B504462046FFF7B9
:1007E00069FE424941EA004589132846FFF779FE30
:1007F00030BD30B504462046FFF75CFE3B4941EA78
:10080000004538492846FFF76CFE30BD30B5044638
:100810002046FFF74FFE354941EA00458913284637
:10082000FFF75FFE30BD10B5044632492046FFF7A2
:1008300075FE10BD30B505462846FFF73BFE214941
:1008400051F8203013B94FF0FF3030BDDC68200C78
:10085000FBE710B503461846FFF72CFE04460020C0
:1008600008B1012010BD0020FCE7F0B505460E469A
:100870002846FFF7EEFF28B12846FFF7DBFF0446C6
:100880002046F0BD05F00F00012101EB8000074973
:100890002031086000BF05481830046804F4006087
:1008A0000028F8D0C4F3090400272BE008C2005048
:1008B00000C000500005D0000000082030C0072014
:1008C0004CC0072030C3072000C00240CFFFFFCF3D
:1008D00010000020C4C00F40F4CF00500005FE00FF
:1008E00000C00720000101000005D80000054000FD
:1008F000000120000005F200F948D0F8180230602D
:10090000361D7F1CE01CB7EB900FF5D30020F54996
:10091000086041F24820284100F0010018B9F2496E
:100920002846FFF7FBFD2046ABE700B50346184617
:10093000FFF7C0FD01218140EA483030016000BD71
:1009400000B503461846FFF7B5FD01218140E54893
:100950006030016000BD2DE9F04782460B46187BF0
:10096000C0F340045046FFF7A5FD81464FF0000854
:10097000DE4850F8296019E0B046187B00F001000D
:1009800090B9DB4850F82400A8EB0000D94951F891
:100990002410B0FBF1F7D84850F824000121B940E9
:1009A0008843D54941F82400D8F80060002EE3D1EF
:1009B000002708E0D04850F824000121B940084041
:1009C00000B902E07F1C202FF4D300BF202F02D1FA
:1009D0000020BDE8F087C84850F824000121B94044
:1009E0000843C54941F82400C14850F82400C149D2
:1009F00051F8241007FB0106B8F1000F0CD0187B4A
:100A000000F0010040B1C8F80060D8F8040040F0E0
:100A10000400C8F8040005E0B44840F82960B7486D
:100A200040F829603546002001C5187BC0F38000DE
:100A3000197BC1F3400140EA0110D98840EA411016
:100A4000998840EA014001C5186801C59889C0F33A
:100A50000720000201C50CB1986828600120B8E7A2
:100A6000FFB507460D4614463846FFF7F2FEC8B1FB
:100A70000095A0B2ADF804004020ADF806000020BB
:100A80000390039820F00200039069463846FFF770
:100A900062FF3846FFF754FF3846FFF746FF20460F
:100AA00004B0F0BD07F00F00022101EB80008D497A
:100AB00008608B48C0F82442002605E02868894970
:100AC0000C3908602D1D761CE01CB6EB900FF5D399
:100AD0000020844908608A493846FFF71FFD2046F8
:100AE000DEE700B503461846FFF7E4FC012181402C
:100AF0007C486430016000BD30B505462846FFF7EC
:100B0000D9FC7E4951F820300BB9002030BDDC689B
:100B1000C4F343000A2812D2DFE800F00507090BEE
:100B2000111111110D0F0120F0E70220EEE7032053
:100B3000ECE70520EAE70420E8E70620E6E74FF6C1
:100B4000FF70E3E730B505462846FFF7B3FC6B4975
:100B500051F8203013B94FF0FF3030BD9C6820466B
:100B6000FBE700B56748FFF7ADFC6748FFF7FDFC02
:100B700003466548FFF7F9FC43EA0023184600BD29
:100B80002DE9F04757482838D0F8009009F00800C0
:100B9000E8B108205349203908605C48FFF792FC0F
:100BA0005B48FFF7E2FC064606F0100018B1FFF7BD
:100BB00004FD00F005F906F0080038B106F0040065
:100BC00010B1FFF7A0FD01E0FFF79EFDF2E009F094
:100BD000040000284DD04FF0000842480830076854
:100BE00000243FE0474500D13EE00120A0403840CE
:100BF00060B30120A04040EA080865080120A04039
:100C000038491031086000BF36482838006800F0C5
:100C100020000028F8D033481438066804F001009A
:100C2000A8B954B906F0040038B13A48006820B1B8
:100C3000384801680120884713E0364850F82500FD
:100C400020B1344850F825100220884708E0314888
:100C500050F8250020B12F4850F825100320884770
:100C600000BF641C202CBDD300BF04201D492039C7
:100C700008601C486830006800F0010028B319487B
:100C80007830066802241BE00120A0403040B0B15B
:100C9000650804F0010048B91E4850F8250070B1FD
:100CA0001C4850F825100820884708E0194850F8DB
:100CB000250020B1174850F8251009208847641CEA
:100CC000202CE1D307487C30066006486830006875
:100CD00000F0020090B3034884300668022438E034
:100CE00000C0005028C200500005F2004CC0072090
:100CF000BC1F0000C41F000030C0072030C3072005
:100D00000005FA000005F5000002F5000005FE00F0
:100D10000002FE00CC1F00000120A0403040B8B10E
:100D2000650804F0010050B9234850F8250078B157
:100D3000214850F825100A20884709E00DE01E4898
:100D400050F8250020B11C4850F825100B2088478A
:100D5000641C202CE0D3194806601848203800682D
:100D600000F0040028B315480830066802241BE090
:100D70000120A0403040B0B1650804F0010048B93E
:100D80000D4850F8250070B10B4850F825100C2084
:100D9000884708E0084850F8250020B1064850F878
:100DA00025100D208847641C202CE1D303480C300B
:100DB000066000BFBDE8F087CC1F0000B0C2005045
:100DC00010B5FFF7D1F910BD704770471FB5044645
:100DD000A01E0A2828D2DFE800F0050827272727C9
:100DE0000B260E2300F0FDFB1EE000F0D2FB1BE003
:100DF00000F0F7FB18E0144800904020ADF8040024
:100E0000ADF8060000200390039820F00200039044
:100E100069460220FFF79FFD0220FFF791FD03E0E6
:100E200000F0B7FB00E000BF00BF1FBD7047704778
:100E300070477047704770477047704770477047FA
:100E4000704770477047000050C5072010B5044632
:100E50002046FFF7CEFC04F0800028B104F00F011B
:100E60004FF48030884001E00120A040FE4909682D
:100E70000843FD49086010BD0020FC490860FC499A
:100E80000860FC490870012070470020FA4908708A
:100E90000120704770B5F9480068402801D9402406
:100EA00001E0F6480468F64800682044B0F5005FA9
:100EB00006D9F3480068C0F500540420ED490870D5
:100EC0008220FFF7C6FC88B1002507E0EC480068E7
:100ED0002844EC49085CEC4948556D1CA542F5D303
:100EE0002246E9498220FFF7BBFD07E0E548E44AD6
:100EF0001268811822468220FFF7B2FDE0480068A0
:100F00002044DF490860DD480068001BDB490860B9
:100F1000D7488068001BD6498860D848006810B957
:100F20000320D4490870D3480078022802D000205A
:100F3000CF49087370BD10B5D448CD4908600D2263
:100F40008220FFF78DFD0520CA49087010BD10B53D
:100F5000CB480068CE4909780844B0F5005F0AD94B
:100F6000C74800684042CA4908700520C149087056
:100F70000220FFF76BFF002407E0C348005DC04973
:100F800009682144BF4A5054641CC1480078844217
:100F9000F3D3BB480068BE4909780844B8490860E3
:100FA000B6480068BA490978401AB4490860B048A0
:100FB0008068B7490978401AAD498860AF48006831
:100FC00018B1AC480078052804D10020A84908735E
:100FD000FFF7B1FF10BD10B5A9480068AC4909780A
:100FE0000844B0F5005F0AD9A54800684042A84906
:100FF000087005209F4908700220FFF727FF002492
:101000000DE09F48006820449E49085C9E49095DA8
:10101000884203D000209F49086004E0641C9C487B
:1010200000788442EDD300BF95480068984909785C
:101030000844934908609148006895490978401A26
:101040008E4908608A48806891490978401A884921
:1010500088608A48006818B186480078052809D158
:101060008C48006808B9012000E00020804908731E
:10107000FFF761FF10BD10B58748407C0106864828
:10108000807C41EA00418448C07C41EA00208249DA
:10109000097D40EA01046002794908607E48C07B0E
:1010A0002F280CD004DC282807D02A281ED105E0E0
:1010B000A8280AD0AA2819D108E000BF00BF7648A6
:1010C000C17D807D41EA002410E000BF7248407D70
:1010D00001067148807D41EA00416F48C07D41EAC8
:1010E00000206D49097E40EA010400BF00BF600294
:1010F000624908606848806830B901205C4908731B
:10110000FFF719FF002010BD634880685B4909683C
:10111000884212D06048007B00F0800018B1822025
:10112000FFF794FE02E00220FFF790FE01205049F5
:101130000873FFF700FF0020E5E70120E3E710B5A3
:101140005548806830B9022049490873FFF7F3FE1B
:10115000002010BD5048007B00F0800048B90220FC
:10116000FFF774FE022042490873FFF7E4FE0020F7
:10117000EFE70120EDE710B547488068444909785A
:10118000884207D84448007A414908700320394909
:10119000087002E00420374908703D4802783A4957
:1011A0008220FFF75DFC3248806839490978401A8F
:1011B0002F4988600020087310BD10B5364880683C
:1011C00058B13548007B00F0800018B18220FFF74D
:1011D0003DFE02E00220FFF739FE0020244908739B
:1011E000FFF7A9FE10BD10B5FFF7A9FF00B910BDAC
:1011F0007020254908700020487002208870002067
:10120000C8700871487188710A20C871002008727E
:1012100048728872C8723020087301204873002019
:101220008873C87308744874122019490870FFF74E
:10123000A2FF00BFDBE710B5FFF781FF00B910BDCB
:10124000002011490870802048700020887001201B
:10125000C870202008718020487100208871C871F2
:101260004B200872652019E008C007200CC0072039
:10127000AFC5072044C0072015C0072040C0072085
:101280003CC007200000001050C5072055534253B2
:1012900045C0072038C0072090C507204872692044
:1012A00088726C20C8722020087348738873C873D2
:1012B0004C20087450204874432088743120C8742E
:1012C000372008757820487588752020C875442017
:1012D000087669204876732088766B20C8762020AF
:1012E000087748778877C877312081F820002E204A
:1012F00081F82100302081F82200202081F823008D
:101300002420D0490870FFF736FF00BF97E710B5DB
:10131000FFF715FF00B910BD0320CB49087000206E
:1013200048708870C8700420C6490870FFF723FF12
:1013300000BFF0E710B5FFF702FF00B910BD0020B5
:10134000C14908700620487000208870C870087174
:1013500048718871C8710820BA490870FFF70BFFFF
:1013600000BFEBE710B5FFF7EAFE00B910BD0020A3
:10137000B5490870487088700F20C8700020087147
:101380004871022088710020C8710820AD4908709A
:10139000FFF7F1FE00BFE9E710B5FFF7D0FE00B997
:1013A00010BD0020A8490870487088700820C870D7
:1013B00000200871487188711020C87102200872DD
:1013C00000204872022088720020C8720C209D49BB
:1013D0000870FFF7D0FE00BFE2E710B5002404E07C
:1013E0009948005D99490855641C964800788442E4
:1013F000F6D3944800781F2870D194480068944927
:101400008842F9D191484068924948608F48806885
:1014100088608E48407B38B98C48807B012803DB8C
:101420008A48807B102806DD00BF012089490873A7
:10143000FFF781FDACE08548C07B232839D011DC63
:1014400015282ED007DC00B3032821D0042822D091
:1014500012286ED120E01A2824D01B281FD01E2865
:101460007FD11DE0552820D008DC252824D028284D
:1014700025D02A283CD02F2873D14FE05A2815D0E8
:10148000A8281DD0AA286CD133E0FFF796FE69E0AA
:10149000FFF7A9FE66E0C8E7FFF7CDFE62E0C4E70C
:1014A000C3E7C2E7FFF733FF5CE0BEE7FFF742FFA9
:1014B00058E0FFF771FF55E0FFF754FF52E000BF1F
:1014C000FFF7D9FD98B16148007B00F0800030B192
:1014D000022061490870FFF7DDFC08E043E00220CC
:1014E000FFF7B4FC02205B490873FFF724FD39E0E5
:1014F00000BFFFF7C0FD80B15448007B00F08000C2
:1015000018B901205449087007E08220FFF79EFCBB
:10151000022050490873FFF70EFD23E04B48007C82
:1015200000F0020030B900204A490873FFF703FDBC
:1015300018E016E0FFF79FFD90B14448007B00F0F3
:10154000800028B90120444908704449086007E038
:101550008220FFF77BFC02203E490873FFF7EBFC7B
:1015600000E062E714E08220FFF770FC3C4800686E
:1015700040F480203A4908600220FFF767FC3848B1
:10158000006840F0040036490860062032490870BF
:1015900010BD10B530480078022806D0032811D0BD
:1015A000042812D005281AD115E02848C07B282825
:1015B00002D0A82804D100E000BFFFF76BFC00BFF9
:1015C00000BF0CE0FFF7B7FC09E08220FFF73EFC0C
:1015D000FFF7B1FC03E000201F49087000BF00BF07
:1015E00010BD10B518490220FFF73FF915490870E2
:1015F0001948007820B1012805D0052816D114E03B
:10160000FFF7EBFE1BE01148C07B2A2804D02F28EF
:1016100006D0AA2807D100E000BFFFF798FC02E03F
:10162000FFF7D9FC00BF00BF09E008E00220FFF788
:101630000DFC022007490873FFF77DFC00BF00BFC7
:1016400010BD000045C0072050C5072090C50720E9
:1016500055534243AFC5072044C0072038C0072078
:101660000CC0072000F0AAF8002404E00748005D41
:1016700007490855641CB4F5805FF7D3FEF7F0FF07
:101680000120FFF732F800BFFEE700000C20000049
:10169000000000100948804709480047FEE7FEE7C0
:1016A000FEE7FEE7FEE7FEE7FEE7FEE7FEE7FEE712
:1016B00004480549034A054B70470000D116000055
:1016C000CD00000030C1072030C3072030C1072003
:1016D00000202021864A116000BF8549096801F079
:1016E00040010029F9D00321814A9C3A1160002170
:1016F000804AC2F8A8117E4A0C32116001217C4A4E
:10170000943A116008217B4A843211600121121F32
:101710001160AA21774A8C3211605521754AC2F8AE
:101720008C10734994390968022908D000BF7149A7
:101730008831096801F080610029F8D004E00020B8
:1017400000E0401C6428FCD903216A4A8032116001
:10175000AA21684AC2F88C105521664A8C32116061
:101760002221644AA43211600121121F1160AA21B2
:10177000604AAC3211605521116000BF5D49A8314B
:10178000096801F480610029F8D00321594AA03288
:101790001160AA21574AC2F8AC105521554AAC3203
:1017A00011605549534AC43211600021504A283211
:1017B000116043F23A014F4A116070474D4888303A
:1017C0000068C0F30160032860D14948943800687C
:1017D00000F0030030B1012820D0022839D00328BE
:1017E00053D100E000BF434888300068C0F30E00CA
:1017F000401C41003F48D0F88800C0F30740401C1F
:10180000B1FBF0F03D49484339499C390968C9B2F8
:10181000491CB0FBF1F03A49086036E035488830A1
:101820000068C0F30E00401C41003248D0F8880028
:10183000C0F30740401CB1FBF0F0324948432C494B
:101840009C390968C9B2491CB0FBF1F02C49086009
:101850001BE0284888300068C0F30E00401C41009F
:101860002448D0F88800C0F30740401CB1FBF0F0DA
:101870004FF4FA4148431E499C390968C9B2491CD2
:10188000B0FBF1F01E49086000BF30E01848943802
:10189000006800F0030030B1012810D0022819D0F0
:1018A000032823D100E000BF11489C380068C0B273
:1018B000401C1249B1FBF0F01149086016E00C48D9
:1018C0009C380068C0B2401C0E49B1FBF0F00C49D6
:1018D00008600BE006489C380068C0B2401C4FF41A
:1018E000FA41B1FBF0F00649086000BF00BF704745
:1018F000A0C10F4000C00F40DE87280400093D0052
:1019000048C007200024F4007047704770477546B0
:1019100000F02CF8AE4605006946534620F007005B
:10192000854618B020B5FFF7C3FEBDE820404FF054
:1019300000064FF000074FF000084FF0000B21F0B9
:101940000701AC46ACE8C009ACE8C009ACE8C00986
:10195000ACE8C0098D46704710B50446AFF300806F
:101960002046BDE81040FEF7F8BB00000048704775
:10197000CCC0072001491820ABBEFEE726000200BC
:101980007047000010B52848007800F01F0010B123
:1019900001283DD139E02448C078012804D002282C
:1019A00007D003282DD118E02048214C20601223B5
:1019B00029E02049002204E0087808B14888014461
:1019C000521C194880789042F6D1087808B9002056
:1019D00010BD174801604B8815E01749002204E04C
:1019E000087808B108780144521C0F48807890426A
:1019F000F6D1087808B90020EAE70D4801600B78B5
:101A000001E00020E4E700BF04E000BF0020DFE7C2
:101A10000020DDE700BF06488088984201D9044CC9
:101A2000A3800120D4E7000028C00720181F000071
:101A300020C007202A1F00004B1F00002748007805
:101A400000F01F0020B1012806D0022841D116E085
:101A50002348244B18603EE02348007860B11F48BB
:101A60000079224B1B78984206DA0020204B188020
:101A700018461C4B186001E0002070472BE0174807
:101A8000007900F08F0101F0800028B101F00F0310
:101A90004FF48030984001E001208840024612480F
:101AA000007810B901F00F0080B9124800681040AA
:101AB00060B111480068104008B1012000E000202A
:101AC0000B4B18801846074B186001E00020D4E744
:101AD00001E00020D1E700BF0120CEE728C00720A9
:101AE00000C0072020C0072003C0072010C0072027
:101AF00015C0072004C0072008C0072070B506469F
:101B00003C48007800F01F0020B101281DD00228B9
:101B10006AD11CE037484088012813D146B1FEF74E
:101B2000FFFD3548008840F00200334908800BE093
:101B30000020FEF7F5FD3048008820F002002E4915
:101B4000088001E0002070BD50E00020FBE729483C
:101B5000007900F08F0404F0800028B104F00F0138
:101B60004FF48030884001E00120A0400546234822
:101B7000007890B304F00F0078B321480068284043
:101B800058B31C48408848BB46B12046FEF731FE9A
:101B90001C48006828431B49086024E01A48006874
:101BA000284008B10120CEE72046FEF72FFE822C08
:101BB0000DD114480068284048B114480068144901
:101BC000884204D10D2211498220FEF749FF0D48B9
:101BD0000068A8430B49086005E002E0FFE7002029
:101BE000B1E70020AFE701E00020ACE700BF012033
:101BF000A9E7000028C0072000C0072003C0072075
:101C000004C0072008C007200CC00720AFC507206C
:101C1000555342532DE9F04100276548007800F004
:101C20001F0000287ED16248807800287BD0614D5B
:101C300083E06878022804D0042853D0052876D1A0
:101C400052E068795A498978884245D15848807865
:101C500059490870287959490870002403E0002088
:101C600057490855641C042CF9D3012414E00120C1
:101C7000A04054490968084010B12046FEF79FFD76
:101C80004FF48030A0404F490968084018B144F033
:101C90008000FEF794FD641C102CE8D34FF0011077
:101CA0004849086000204849086048490860012008
:101CB000FEF737FDE87900F0400030B14448008875
:101CC00040F00100424908800BE04148008820F0C4
:101CD00001003F49088004E02E46688806443546E6
:101CE0002BE024E0EF7822E007BBA87800F08F0417
:101CF00004F0800028B104F00F014FF480308840D8
:101D000001E00120A04080462E48006840EA08001B
:101D10002C4908602846FEF722FD2046FEF742FDCA
:101D2000204601E03FE00DE0FEF756FD00BF00BF9A
:101D30002E4628780644354600BF287800287FF4D0
:101D400078AF26E000201C490870012414E001202F
:101D5000A0401C490968084010B12046FEF72FFD3D
:101D60004FF48030A04017490968084018B144F08A
:101D70008000FEF724FD641C102CE8D34FF0011006
:101D80001049086000201049086010490860FEF7FB
:101D9000C8FC0748807808490978884202D00020AA
:101DA000BDE8F08101E00020FAE700BF0120F7E77D
:101DB00028C007202A1F000003C0072010C00720EA
:101DC00011C0072004C0072008C007200CC007204E
:101DD00000C007202DE9F84F4FF00008C146002051
:101DE000009082464648007800F01F0001287DD10F
:101DF0004448007810B90020BDE8F88F4FF0000B80
:101E0000414C71E06078022804D004280DD00528E8
:101E100064D122E060793B490978884204D02646A3
:101E20006088064434465FE058E094F8028094F8F5
:101E300003904FF0000A3248007940450CD13048F9
:101E40008078484508D14FF0010B304810F8080061
:101E500000902E4901F8089040E02948007940455B
:101E60003BD1A07800F08F0707F0800028B107F081
:101E70000F014FF48030884001E00120B840054652
:101E80001F488078484515D12148006828432049DB
:101E9000086020480068A8431E4908602046FEF7F5
:101EA0005EFC3846FEF77EFC3846FEF795FC4AEAB3
:101EB000050A12E0009881450FD10AEA050060B9D1
:101EC00013480068A8431249086012480068A843F4
:101ED000104908603846FEF772FC00BF00BF264676
:101EE00020780644344600BF207800E002E0002855
:101EF00088D101E000207FE700BF58467CE7000062
:101F000028C0072003C007202A1F000011C0072097
:101F100004C0072008C007201201000200000008CA
:101F200051C20313000104204801090220000101ED
:101F30000080320904000002080650620705820290
:101F40004000000705020240000000040309041CD1
:101F5000034E00580050002000530065006D0069DA
:101F60000063006F006E006400200028034E0058DC
:101F700000500020004C0050004300310037007832
:101F800000780020004D0065006D006F0072007940
:101F90000020001A03440045004D004F003000307F
:101FA000003000300030003000300030000E034DB3
:101FB0000065006D006F007200790000800008204D
:101FC0008001082010000000140000000902000039
:101FD00000000000CD0D0000000000000000000027
:101FE00000000000000000000000000000000000F1
:101FF00000000000000000000000000000000000E1
:10200000000000000000000000000000EB3C904DCC
:1020100053444F53352E30000201010001100020BF
:1020200000F80200010001000000000000000000B4
:10203000000029741902274C504331373638205597
:102040005342464154313220202033C98ED1BCF056
:102050007B8ED9B800208EC0FCBD007C384E247D1C
:10206000248BC199E83C01721C83EB3A66A11C7C6D
:1020700026663B07268A57FC750680CA02885602E8
:1020800080C31073EB33C98A461098F7661603466F
:102090001C13561E03460E13D18B7611608946FC25
:1020A0008956FEB82000F7E68B5E0B03C348F7F3B2
:1020B0000146FC114EFE61BF0000E8E600723926C1
:1020C000382D741760B10BBEA17DF3A66174324E3A
:1020D000740983C7203BFB72E6EBDCA0FB7DB47D7B
:1020E0008BF0AC9840740C487413B40EBB0700CD51
:1020F00010EBEFA0FD7DEBE6A0FC7DEBE1CD16CD76
:1021000019268B551A52B001BB0000E83B0072E85B
:102110005B8A5624BE0B7C8BFCC746F03D7DC746D0
:10212000F4297D8CD9894EF2894EF6C606967DCB70
:10213000EA030000200FB6C8668B46F86603461C0B
:10214000668BD066C1EA10EB5E0FB6C84A4A8A4673
:102150000D32E4F7E20346FC1356FEEB4A525006FA
:10216000536A016A10918B4618969233D2F7F69112
:10217000F7F64287CAF7761A8AF28AE8C0CC020AD2
:10218000CCB80102807E020E7504B4428BF48A56EC
:1021900024CD136161720B40750142035E0B4975DA
:1021A00006F8C341BB000060666A00EBB04E544CB9
:1021B00044522020202020200D0A52656D6F766544
:1021C000206469736B73206F72206F74686572206E
:1021D0006D656469612EFF0D0A4469736B20657239
:1021E000726F72FF0D0A507265737320616E7920F1
:1021F0006B657920746F20726573746172740D0A57
:1022000000000000000000ACCBD855AAF8FFFFFF8B
:10221000FFFFFF0F000000000000000000000000B2
:1022200000000000000000000000000000000000AE
:10223000000000000000000000000000000000009E
:10224000000000000000000000000000000000008E
:10225000000000000000000000000000000000007E
:102600000000000000000000000000004C504331BA
:1026100037363820555342280000000000000000E3
:10262000000000000000000000000000524541448E
:102630004D45202054585421000000002100BB3299
:102640000000DC83BB3202005D00000000000000DF
:10265000000000000000000000000000000000007A
:10266000000000000000000000000000000000006A
:10267000000000000000000000000000000000005A
:10268000000000000000000000000000000000004A
:10269000000000000000000000000000000000003A
:1026A000000000000000000000000000000000002A
:1026B000000000000000000000000000000000001A
:1026C000000000000000000000000000000000000A
:1026D00000000000000000000000000000000000FA
:1026E00000000000000000000000000000000000EA
:1026F00000000000000000000000000000000000DA
:1027000000000000000000000000000000000000C9
:1027100000000000000000000000000000000000B9
:1027200000000000000000000000000000000000A9
:102730000000000000000000000000000000000099
:102740000000000000000000000000000000000089
:102750000000000000000000000000000000000079
:102760000000000000000000000000000000000069
:102770000000000000000000000000000000000059
:102780000000000000000000000000000000000049
:102790000000000000000000000000000000000039
:1027A0000000000000000000000000000000000029
:1027B0000000000000000000000000000000000019
:1027C0000000000000000000000000000000000009
:1027D00000000000000000000000000000000000F9
:1027E00000000000000000000000000000000000E9
:1027F00000000000000000000000000000000000D9
:102800000000000000000000000000005468697330
:10281000206973206120555342204D656D6F727998
:10282000204465766963652064656D6F6E737472AC
:102830006174696F6E20666F720D0A746865204B53
:1028400065696C204D43423137303020426F6172F0
:10285000642077697468204E5850204C50433137BB
:1028600078782E0D0A000000000000000000000033
:102870000000000000000000000000000000000058
:102880000000000000000000000000000000000048
:102890000000000000000000000000000000000038
:1028A0000000000000000000000000000000000028
:103000000000000000000000000000003C30000054
:1030100000C007204C000000080100003C30000008
:103020000000001000200000240100008830000093
:103030004CC00720700500002401000000000000C3
:103040000000000000000000000000000000000080
:103050000000000000000000000000000000000070
:103060000000000000000000000000000000000060
:103070000000000000000000000000000000000050
:083080000000000000093D0002
:04000005000000CD2A
:00000001FF
